{
  "contractName": "InterestContract",
  "abi": [
    {
      "inputs": [],
      "stateMutability": "nonpayable",
      "type": "constructor"
    },
    {
      "inputs": [
        {
          "internalType": "uint256",
          "name": "",
          "type": "uint256"
        }
      ],
      "name": "investementList",
      "outputs": [
        {
          "internalType": "address payable",
          "name": "invester",
          "type": "address"
        },
        {
          "internalType": "uint256",
          "name": "amount",
          "type": "uint256"
        },
        {
          "internalType": "enum InterestContract.InvestmentState",
          "name": "state",
          "type": "uint8"
        },
        {
          "internalType": "uint256",
          "name": "rate",
          "type": "uint256"
        },
        {
          "internalType": "uint256",
          "name": "time",
          "type": "uint256"
        },
        {
          "internalType": "uint256",
          "name": "investmentdate",
          "type": "uint256"
        }
      ],
      "stateMutability": "view",
      "type": "function"
    },
    {
      "inputs": [
        {
          "internalType": "address",
          "name": "",
          "type": "address"
        },
        {
          "internalType": "uint256",
          "name": "",
          "type": "uint256"
        }
      ],
      "name": "investmentMap",
      "outputs": [
        {
          "internalType": "uint256",
          "name": "",
          "type": "uint256"
        }
      ],
      "stateMutability": "view",
      "type": "function"
    },
    {
      "inputs": [],
      "name": "owner",
      "outputs": [
        {
          "internalType": "address",
          "name": "",
          "type": "address"
        }
      ],
      "stateMutability": "view",
      "type": "function"
    },
    {
      "inputs": [
        {
          "internalType": "uint256",
          "name": "_amount",
          "type": "uint256"
        },
        {
          "internalType": "uint256",
          "name": "_rate",
          "type": "uint256"
        },
        {
          "internalType": "uint256",
          "name": "_time",
          "type": "uint256"
        }
      ],
      "name": "newInvestment",
      "outputs": [],
      "stateMutability": "payable",
      "type": "function"
    },
    {
      "inputs": [
        {
          "internalType": "uint256",
          "name": "index",
          "type": "uint256"
        },
        {
          "internalType": "uint256",
          "name": "_days",
          "type": "uint256"
        }
      ],
      "name": "getReturn",
      "outputs": [],
      "stateMutability": "payable",
      "type": "function"
    },
    {
      "inputs": [
        {
          "internalType": "uint256",
          "name": "amount",
          "type": "uint256"
        }
      ],
      "name": "deposit",
      "outputs": [],
      "stateMutability": "payable",
      "type": "function"
    },
    {
      "inputs": [
        {
          "internalType": "uint256",
          "name": "amount",
          "type": "uint256"
        }
      ],
      "name": "withdraw",
      "outputs": [],
      "stateMutability": "nonpayable",
      "type": "function"
    }
  ],
  "bytecode": "0x608060405234801561001057600080fd5b50336000806101000a81548173ffffffffffffffffffffffffffffffffffffffff021916908373ffffffffffffffffffffffffffffffffffffffff160217905550610bcb806100606000396000f3fe6080604052600436106100705760003560e01c80638da5cb5b1161004e5780638da5cb5b146100f757806398eb393f14610122578063b6b55f2514610164578063e8d46f981461018057610070565b80632e1a7d4d1461007557806330b362791461009e57806336eb9caf146100ba575b600080fd5b34801561008157600080fd5b5061009c60048036038101906100979190610748565b61019c565b005b6100b860048036038101906100b39190610775565b6101e6565b005b3480156100c657600080fd5b506100e160048036038101906100dc9190610813565b6103ff565b6040516100ee9190610862565b60405180910390f35b34801561010357600080fd5b5061010c610430565b604051610119919061088c565b60405180910390f35b34801561012e57600080fd5b5061014960048036038101906101449190610748565b610454565b60405161015b9695949392919061093f565b60405180910390f35b61017e60048036038101906101799190610748565b6104cd565b005b61019a600480360381019061019591906109a0565b610543565b005b3373ffffffffffffffffffffffffffffffffffffffff166108fc829081150290604051600060405180830381858888f193505050501580156101e2573d6000803e3d6000fd5b5050565b6000600260003373ffffffffffffffffffffffffffffffffffffffff1673ffffffffffffffffffffffffffffffffffffffff1681526020019081526020016000208381548110610239576102386109f3565b5b906000526020600020015490506000600181111561025a576102596108c8565b5b6001828154811061026e5761026d6109f3565b5b906000526020600020906006020160020160009054906101000a900460ff16600181111561029f5761029e6108c8565b5b036103fa5762015180826102b39190610a51565b600182815481106102c7576102c66109f3565b5b906000526020600020906006020160040154600183815481106102ed576102ec6109f3565b5b9060005260206000209060060201600501546103099190610aab565b6103139190610aab565b42106103ca5760006001828154811061032f5761032e6109f3565b5b906000526020600020906006020160040154606460018481548110610357576103566109f3565b5b9060005260206000209060060201600301546103739190610b30565b61037d9190610a51565b60016103899190610aab565b6001838154811061039d5761039c6109f3565b5b9060005260206000209060060201600101546103b99190610a51565b90506103c48161019c565b506103f9565b6103f8600182815481106103e1576103e06109f3565b5b90600052602060002090600602016001015461019c565b5b5b505050565b6002602052816000526040600020818154811061041b57600080fd5b90600052602060002001600091509150505481565b60008054906101000a900473ffffffffffffffffffffffffffffffffffffffff1681565b6001818154811061046457600080fd5b90600052602060002090600602016000915090508060000160009054906101000a900473ffffffffffffffffffffffffffffffffffffffff16908060010154908060020160009054906101000a900460ff16908060030154908060040154908060050154905086565b8034146104d957600080fd5b60008054906101000a900473ffffffffffffffffffffffffffffffffffffffff1673ffffffffffffffffffffffffffffffffffffffff166108fc349081150290604051600060405180830381858888f1935050505015801561053f573d6000803e3d6000fd5b5050565b823373ffffffffffffffffffffffffffffffffffffffff1631101561056757600080fd5b60016040518060c001604052803373ffffffffffffffffffffffffffffffffffffffff168152602001858152602001600060018111156105aa576105a96108c8565b5b815260200184815260200183815260200142815250908060018154018082558091505060019003906000526020600020906006020160009091909190915060008201518160000160006101000a81548173ffffffffffffffffffffffffffffffffffffffff021916908373ffffffffffffffffffffffffffffffffffffffff1602179055506020820151816001015560408201518160020160006101000a81548160ff02191690836001811115610664576106636108c8565b5b0217905550606082015181600301556080820151816004015560a082015181600501555050600260003373ffffffffffffffffffffffffffffffffffffffff1673ffffffffffffffffffffffffffffffffffffffff168152602001908152602001600020600180805490506106d99190610b61565b9080600181540180825580915050600190039060005260206000200160009091909190915055610708836104cd565b505050565b600080fd5b6000819050919050565b61072581610712565b811461073057600080fd5b50565b6000813590506107428161071c565b92915050565b60006020828403121561075e5761075d61070d565b5b600061076c84828501610733565b91505092915050565b6000806040838503121561078c5761078b61070d565b5b600061079a85828601610733565b92505060206107ab85828601610733565b9150509250929050565b600073ffffffffffffffffffffffffffffffffffffffff82169050919050565b60006107e0826107b5565b9050919050565b6107f0816107d5565b81146107fb57600080fd5b50565b60008135905061080d816107e7565b92915050565b6000806040838503121561082a5761082961070d565b5b6000610838858286016107fe565b925050602061084985828601610733565b9150509250929050565b61085c81610712565b82525050565b60006020820190506108776000830184610853565b92915050565b610886816107d5565b82525050565b60006020820190506108a1600083018461087d565b92915050565b60006108b2826107b5565b9050919050565b6108c2816108a7565b82525050565b7f4e487b7100000000000000000000000000000000000000000000000000000000600052602160045260246000fd5b60028110610908576109076108c8565b5b50565b6000819050610919826108f7565b919050565b60006109298261090b565b9050919050565b6109398161091e565b82525050565b600060c08201905061095460008301896108b9565b6109616020830188610853565b61096e6040830187610930565b61097b6060830186610853565b6109886080830185610853565b61099560a0830184610853565b979650505050505050565b6000806000606084860312156109b9576109b861070d565b5b60006109c786828701610733565b93505060206109d886828701610733565b92505060406109e986828701610733565b9150509250925092565b7f4e487b7100000000000000000000000000000000000000000000000000000000600052603260045260246000fd5b7f4e487b7100000000000000000000000000000000000000000000000000000000600052601160045260246000fd5b6000610a5c82610712565b9150610a6783610712565b9250817fffffffffffffffffffffffffffffffffffffffffffffffffffffffffffffffff0483118215151615610aa057610a9f610a22565b5b828202905092915050565b6000610ab682610712565b9150610ac183610712565b9250827fffffffffffffffffffffffffffffffffffffffffffffffffffffffffffffffff03821115610af657610af5610a22565b5b828201905092915050565b7f4e487b7100000000000000000000000000000000000000000000000000000000600052601260045260246000fd5b6000610b3b82610712565b9150610b4683610712565b925082610b5657610b55610b01565b5b828204905092915050565b6000610b6c82610712565b9150610b7783610712565b925082821015610b8a57610b89610a22565b5b82820390509291505056fea26469706673582212203fe5470f1cae71e37ea74d102cc9abf28a50eabd712456789402a8e4078d9f1564736f6c634300080d0033",
  "immutableReferences": {},
  "source": "// SPDX-License-Identifier: GPL-3.0\r\n\r\npragma solidity >=0.7.0 <0.9.0;\r\n\r\n/**\r\n * @title Owner\r\n * @dev Set & change owner\r\n */\r\ncontract InterestContract {\r\n\r\n    address  public owner ;\r\n\r\n    enum InvestmentState {\r\n        HOLDING,\r\n        DISPATCHED\r\n    }\r\n\r\n    struct Investment {\r\n        address payable invester;\r\n        uint amount;\r\n        InvestmentState state;\r\n        uint rate;\r\n        uint time;\r\n        uint investmentdate;\r\n    }\r\n\r\n    Investment[] public investementList;\r\n\r\n    mapping (address=>uint[]) public investmentMap;\r\n\r\n    \r\n    constructor ()  {\r\n        owner = msg.sender;\r\n        \r\n    }\r\n\r\n    function newInvestment (uint _amount ,uint _rate,uint _time ) payable public {\r\n        require(msg.sender.balance >= _amount);\r\n        investementList.push(Investment(payable(msg.sender),_amount ,InvestmentState.HOLDING,_rate,_time,block.timestamp));\r\n        investmentMap[msg.sender].push(investementList.length-1);   \r\n        deposit(_amount);  \r\n    }\r\n\r\n    function getReturn (uint index,uint _days) payable public {\r\n        uint investmentId=investmentMap[msg.sender][index];\r\n        if(investementList[investmentId].state==InvestmentState.HOLDING){\r\n            if(block.timestamp >= (investementList[investmentId].investmentdate + investementList[investmentId].time + _days*1 days)){\r\n            uint ret=investementList[investmentId].amount*(1 + (investementList[investmentId].rate/100)*investementList[investmentId].time);\r\n            withdraw(ret);\r\n            }else{\r\n                withdraw(investementList[investmentId].amount);\r\n            }\r\n        }\r\n    } \r\n\r\n    function deposit(uint256 amount) payable public {\r\n        require(msg.value == amount);\r\n        payable(owner).transfer(msg.value);\r\n    }\r\n\r\n    function withdraw(uint256 amount) public {\r\n        payable(msg.sender).transfer(amount);\r\n    \r\n    }   \r\n\r\n}\r\n",
  "sourcePath": "C:\\apps\\Truffle\\InterestContract\\contracts\\InterestContract.sol",
  "compiler": {
    "name": "solc",
    "version": "0.8.13+commit.abaa5c0e.Emscripten.clang"
  },
  "schemaVersion": "3.4.7",
  "updatedAt": "2022-04-22T09:34:40.874Z",
  "devdoc": {
    "details": "Set & change owner",
    "kind": "dev",
    "methods": {},
    "title": "Owner",
    "version": 1
  },
  "userdoc": {
    "kind": "user",
    "methods": {},
    "version": 1
  }
}